{
  "_format": "hh-sol-artifact-1",
  "contractName": "MockMultiSignature",
  "sourceName": "contracts/mock/MockMultiSignature.sol",
  "abi": [
    {
      "inputs": [
        {
          "internalType": "bytes32",
          "name": "",
          "type": "bytes32"
        }
      ],
      "name": "approvals",
      "outputs": [
        {
          "internalType": "uint256",
          "name": "",
          "type": "uint256"
        }
      ],
      "stateMutability": "view",
      "type": "function"
    },
    {
      "inputs": [
        {
          "internalType": "address",
          "name": "caller",
          "type": "address"
        },
        {
          "internalType": "address",
          "name": "target",
          "type": "address"
        },
        {
          "internalType": "uint256",
          "name": "index",
          "type": "uint256"
        }
      ],
      "name": "approve",
      "outputs": [],
      "stateMutability": "nonpayable",
      "type": "function"
    },
    {
      "inputs": [
        {
          "internalType": "bytes32",
          "name": "msghash",
          "type": "bytes32"
        },
        {
          "internalType": "uint256",
          "name": "lastIndex",
          "type": "uint256"
        }
      ],
      "name": "getValidSignature",
      "outputs": [
        {
          "internalType": "uint256",
          "name": "",
          "type": "uint256"
        }
      ],
      "stateMutability": "view",
      "type": "function"
    }
  ],
  "bytecode": "0x608060405234801561001057600080fd5b50610183806100206000396000f3fe608060405234801561001057600080fd5b50600436106100415760003560e01c80631ebaa16614610046578063bf7c21311461007b578063e1f21c6714610098575b600080fd5b6100696004803603604081101561005c57600080fd5b50803590602001356100d0565b60408051918252519081900360200190f35b6100696004803603602081101561009157600080fd5b50356100e3565b6100ce600480360360608110156100ae57600080fd5b506001600160a01b038135811691602081013590911690604001356100f5565b005b5060009081526020819052604090205490565b60006020819052908152604090205481565b604080516001600160601b0319606095861b81166020808401919091529490951b909416603485015280516028818603018152604890940181528351938301939093206000908152918290529190206001909101905556fea2646970667358221220dbcbbdbd1dd09bd63f854e61c2d75258c5f2057393028aebc0810d32d1af2f8364736f6c634300060c0033",
  "linkReferences": {},
  "deployedLinkReferences": {}
}