{"contracts/mock/MockMultiSignature.sol":{"MockMultiSignature":{"abi":[{"inputs":[{"internalType":"bytes32","name":"","type":"bytes32"}],"name":"approvals","outputs":[{"internalType":"uint256","name":"","type":"uint256"}],"stateMutability":"view","type":"function"},{"inputs":[{"internalType":"address","name":"caller","type":"address"},{"internalType":"address","name":"target","type":"address"},{"internalType":"uint256","name":"index","type":"uint256"}],"name":"approve","outputs":[],"stateMutability":"nonpayable","type":"function"},{"inputs":[{"internalType":"bytes32","name":"msghash","type":"bytes32"},{"internalType":"uint256","name":"lastIndex","type":"uint256"}],"name":"getValidSignature","outputs":[{"internalType":"uint256","name":"","type":"uint256"}],"stateMutability":"view","type":"function"}],"evm":{"bytecode":{"linkReferences":{},"object":"608060405234801561001057600080fd5b50610183806100206000396000f3fe608060405234801561001057600080fd5b50600436106100415760003560e01c80631ebaa16614610046578063bf7c21311461007b578063e1f21c6714610098575b600080fd5b6100696004803603604081101561005c57600080fd5b50803590602001356100d0565b60408051918252519081900360200190f35b6100696004803603602081101561009157600080fd5b50356100e3565b6100ce600480360360608110156100ae57600080fd5b506001600160a01b038135811691602081013590911690604001356100f5565b005b5060009081526020819052604090205490565b60006020819052908152604090205481565b604080516001600160601b0319606095861b81166020808401919091529490951b909416603485015280516028818603018152604890940181528351938301939093206000908152918290529190206001909101905556fea2646970667358221220dbcbbdbd1dd09bd63f854e61c2d75258c5f2057393028aebc0810d32d1af2f8364736f6c634300060c0033","opcodes":"PUSH1 0x80 PUSH1 0x40 MSTORE CALLVALUE DUP1 ISZERO PUSH2 0x10 JUMPI PUSH1 0x0 DUP1 REVERT JUMPDEST POP PUSH2 0x183 DUP1 PUSH2 0x20 PUSH1 0x0 CODECOPY PUSH1 0x0 RETURN INVALID PUSH1 0x80 PUSH1 0x40 MSTORE CALLVALUE DUP1 ISZERO PUSH2 0x10 JUMPI PUSH1 0x0 DUP1 REVERT JUMPDEST POP PUSH1 0x4 CALLDATASIZE LT PUSH2 0x41 JUMPI PUSH1 0x0 CALLDATALOAD PUSH1 0xE0 SHR DUP1 PUSH4 0x1EBAA166 EQ PUSH2 0x46 JUMPI DUP1 PUSH4 0xBF7C2131 EQ PUSH2 0x7B JUMPI DUP1 PUSH4 0xE1F21C67 EQ PUSH2 0x98 JUMPI JUMPDEST PUSH1 0x0 DUP1 REVERT JUMPDEST PUSH2 0x69 PUSH1 0x4 DUP1 CALLDATASIZE SUB PUSH1 0x40 DUP2 LT ISZERO PUSH2 0x5C JUMPI PUSH1 0x0 DUP1 REVERT JUMPDEST POP DUP1 CALLDATALOAD SWAP1 PUSH1 0x20 ADD CALLDATALOAD PUSH2 0xD0 JUMP JUMPDEST PUSH1 0x40 DUP1 MLOAD SWAP2 DUP3 MSTORE MLOAD SWAP1 DUP2 SWAP1 SUB PUSH1 0x20 ADD SWAP1 RETURN JUMPDEST PUSH2 0x69 PUSH1 0x4 DUP1 CALLDATASIZE SUB PUSH1 0x20 DUP2 LT ISZERO PUSH2 0x91 JUMPI PUSH1 0x0 DUP1 REVERT JUMPDEST POP CALLDATALOAD PUSH2 0xE3 JUMP JUMPDEST PUSH2 0xCE PUSH1 0x4 DUP1 CALLDATASIZE SUB PUSH1 0x60 DUP2 LT ISZERO PUSH2 0xAE JUMPI PUSH1 0x0 DUP1 REVERT JUMPDEST POP PUSH1 0x1 PUSH1 0x1 PUSH1 0xA0 SHL SUB DUP2 CALLDATALOAD DUP2 AND SWAP2 PUSH1 0x20 DUP2 ADD CALLDATALOAD SWAP1 SWAP2 AND SWAP1 PUSH1 0x40 ADD CALLDATALOAD PUSH2 0xF5 JUMP JUMPDEST STOP JUMPDEST POP PUSH1 0x0 SWAP1 DUP2 MSTORE PUSH1 0x20 DUP2 SWAP1 MSTORE PUSH1 0x40 SWAP1 KECCAK256 SLOAD SWAP1 JUMP JUMPDEST PUSH1 0x0 PUSH1 0x20 DUP2 SWAP1 MSTORE SWAP1 DUP2 MSTORE PUSH1 0x40 SWAP1 KECCAK256 SLOAD DUP2 JUMP JUMPDEST PUSH1 0x40 DUP1 MLOAD PUSH1 0x1 PUSH1 0x1 PUSH1 0x60 SHL SUB NOT PUSH1 0x60 SWAP6 DUP7 SHL DUP2 AND PUSH1 0x20 DUP1 DUP5 ADD SWAP2 SWAP1 SWAP2 MSTORE SWAP5 SWAP1 SWAP6 SHL SWAP1 SWAP5 AND PUSH1 0x34 DUP6 ADD MSTORE DUP1 MLOAD PUSH1 0x28 DUP2 DUP7 SUB ADD DUP2 MSTORE PUSH1 0x48 SWAP1 SWAP5 ADD DUP2 MSTORE DUP4 MLOAD SWAP4 DUP4 ADD SWAP4 SWAP1 SWAP4 KECCAK256 PUSH1 0x0 SWAP1 DUP2 MSTORE SWAP2 DUP3 SWAP1 MSTORE SWAP2 SWAP1 KECCAK256 PUSH1 0x1 SWAP1 SWAP2 ADD SWAP1 SSTORE JUMP INVALID LOG2 PUSH5 0x6970667358 0x22 SLT KECCAK256 0xDB 0xCB 0xBD 0xBD SAR 0xD0 SWAP12 0xD6 EXTCODEHASH DUP6 0x4E PUSH2 0xC2D7 MSTORE PC 0xC5 CALLCODE SDIV PUSH20 0x93028AEBC0810D32D1AF2F8364736F6C63430006 0xC STOP CALLER "},"methodIdentifiers":{"approvals(bytes32)":"bf7c2131","approve(address,address,uint256)":"e1f21c67","getValidSignature(bytes32,uint256)":"1ebaa166"}}}}}